S015000050726F6A6563745F46696E616C2E73726563EF
S11300000C943A000C94D3010C9457000C941C02E9
S11300100C9457000C9457000C9457000C94570000
S11300200C9457000C9457000C9457000C945700F0
S11300300C9457000C9457000C9457000C945700E0
S11300400C9457000C9457000C9457000C945700D0
S11300500C945700CC00AE00B000B200B400B6005F
S1130060B800BA00BC00BE00C000C200C400C60094
S1130070C800CA0011241FBECFE5D8E0DEBFCDBF43
S113008010E0A0E6B0E0EEE2F6E002C005900D92CA
S1130090A239B107D9F720E0A2E9B0E001C01D926E
S11300A0A939B207E1F70E94A3010C9415030C943B
S11300B0000084B3806184BB85B38F7E85BB0895C3
S11300C025B3206125BB20E030E008C0EFE9FFE064
S11300D03197F1F700C000002F5F3F4F2817390711
S11300E0ACF385B38F7E85BB089578941BBE83E003
S11300F085BF80E484BF81B38B7F81BB87B38B7F53
S113010087BB08959BB721E030E002C0220F331F64
S11301108A95E2F7292B2BBF08959BB721E030E0A5
S113012002C0220F331F8A95E2F7209529232BBFA3
S1130130089587B38F7087BB87B38B7F87BB88B3E2
S11301408F7088BB089586B3E82FE295EF708E2FE9
S113015090E0FC01E65DFF4F0C940F0382E30895E9
S113016083E3089581E4089584E3089585E308957D
S113017086E3089582E4089587E3089588E3089563
S113018089E3089583E408958AE2089580E3089555
S113019083E2089584E4089581E308958BBB85B3D5
S11301A08F7D85BB85B38F7B85BB85B3806885BB1D
S11301B08FE99FE00197F1F700C0000085B38F77C6
S11301C085BB8FED9EE20197F1F700C00000089512
S11301D08BBB85B3806285BB85B38F7B85BB85B3C1
S11301E0806885BB8FE99FE00197F1F700C00000AC
S11301F085B38F7785BB8FED9EE20197F1F700C041
S1130200000008952FE785EB91E021508040904055
S1130210E1F700C0000084B3806E84BB8FEF8ABB1B
S11302208FE99FE00197F1F700C0000088E30E9486
S1130230CE008FE99FE00197F1F700C000008CE049
S11302400E94CE008FE99FE00197F1F700C0000003
S113025086E00E94CE008FE99FE00197F1F700C08D
S1130260000081E00E94CE008FE99FE00197F1F742
S113027000C0000080E80E94CE008FE99FE0019753
S1130280F1F700C00000089581E00E94CE008FE9DC
S11302909FE00197F1F700C0000008950F931F93AA
S11302A0CF93DF938C01C0E0D0E003C00E94E8004C
S11302B02196F801EC0FFD1F80818111F7CFDF91AA
S11302C0CF911F910F910895611104C080580E942D
S11302D0CE000895613019F480540E94CE00089530
S11302E0CF93DF93EC010E94440160E080E00E9420
S11302F06401CE010E944E018FE39CE90197F1F75E
S113030000C00000DF91CF91089584B3876084BB5F
S113031085B3887F85BB089595B321E030E002C0A2
S1130320220F331F8A95E2F7292B25BB089595B335
S113033021E030E002C0220F331F8A95E2F72095B6
S1130340292325BB08950E9402010E9499000E945E
S113035075000E94F2020E9459000E94850180E00B
S11303600E948C0180E690E00E94700161E085E0CB
S11303700E94640185E00E948200FFCF20E00DC04E
S1130380822F90E0FC01E557FF4F3081FC01ED56D0
S1130390FF4F8081381305C02F5F263088F381E03A
S11303A0089580E008951F920F920FB60F921124C2
S11303B02F933F934F935F936F937F938F939F9369
S11303C0AF93BF93EF93FF9380E00E948C0182E090
S11303D00E9497018CE291E00E94FC028FE690E07B
S11303E00E9470012FEF8DE399E4215080409040EA
S11303F0E1F700C0000085E00E94820086E00E94D0
S11304008D0080E690E00E94700161E085E00E942A
S1130410640110929200FF91EF91BF91AF919F916F
S11304208F917F916F915F914F913F912F910F9099
S11304300FBE0F901F9018951F920F920FB60F9238
S113044011242F933F934F935F936F937F938F93D5
S11304509F93AF93BF93CF93EF93FF930E94A30017
S113046090ED980F9A30C0F490919200E92FF0E04B
S1130470ED56FF4F80839F5F909392008AE20E9423
S1130480E80081E00E948C0184E690E00E94600014
S113049081E00E94970131C0843479F584E00E94A0
S11304A0CE008FE99FE00197F1F700C0000080E2E1
S11304B00E94E80080E20E94E80081E00E948C0132
S11304C084E690E00E94600081E00E9497018091A0
S11304D09200882319F081508093920086E00E9454
S11304E0CE008FE99FE00197F1F700C000008091F2
S11304F0920061E08B5F0E946401809192008630DB
S113050009F04CC00E94BE018823C9F086E00E9415
S1130510820085E00E948D0082E00E948C0180E0D0
S11305200E94970188EE93E00E94600086E990E0C3
S11305300E94FC028BE790E00E9470012FC085E8C6
S113054090E00E947001C0E011C081E00E948C0123
S113055084E690E00E9460008FE39CE90197F1F744
S113056000C0000081E00E949701CF5FC33068F3B0
S11305709FEF29E688E1915020408040E1F700C0D8
S1130580000080E690E00E94700180E00E948C01EF
S113059061E085E00E94640110929200FF91EF9166
S11305A0CF91BF91AF919F918F917F916F915F9107
S11305B04F913F912F910F900FBE0F901F90189560
S11305C01FBC8FB582608FBD1EBC8EB588618EBD89
S11305D08EB583608EBD1DBC1CBC87E893E197BDBE
S11305E086BD089581B3806281BB0E94E0028CE2E3
S11305F091E09BBD8ABD08959C019FB590689FBD05
S11306003BBD2ABD2FEF81EE94E021508040904005
S1130610E1F700C000008FB58F778FBD0895EE0F0E
S1110620FF1F0590F491E02D0994F894FFCF8C
S113062E456E7465722050617373776F7264004403
S113063E6F6F7220436C6F73656400446F6F72202A
S113064E4F70656E004572726F72003132333435FD
S105065E360060
S9030000FC
